:100000000C942A000C9447000C9447000C94470071
:100010000C9447000C9447000C9447000C94470044
:100020000C9447000C9447000C9447000C94470034
:100030000C9447000C9447000C9447000C94470024
:100040000C9447000C9447000C9447000C94470014
:100050000C94470011241FBECFE5D8E0DEBFCDBF12
:1000600010E0A0E6B0E0EEEAF1E002C005900D92EB
:10007000AA3BB107D9F720E0AAEBB0E001C01D927E
:10008000AF3BB207E1F70E94A7000C94D5000C9497
:1000900000008BBB85B38F7785BB85B3806285BB42
:1000A0008FE39FE10197F1F700C0000085B38F7DDA
:1000B00085BB08958BBB85B3806885BB85B38062A3
:1000C00085BB8FE39FE10197F1F700C0000085B386
:1000D0008F7D85BB08951F93CF93DF9300D000D011
:1000E00000D0CDB7DEB786E0E0E6F0E0DE011196A5
:1000F00001900D928A95E1F710E010C0E1E0F0E088
:10010000EC0FFD1FE10FF11D80810E9449008FE17E
:100110009EE40197F1F700C000001F5F163070F3F6
:1001200026960FB6F894DEBF0FBECDBFDF91CF91FC
:100130001F910895CF93DF93EC0103C00E945A00F2
:10014000219688818111FACFDF91CF9108958FEFA9
:100150008ABB84BB17BA88B3806888BB88B38064C5
:1001600088BB88B3806288BB0E946B008091BB0013
:100170009091BC009093BE008093BD00B79904C0DD
:1001800081E08093BA0002C01092BA008091BA0058
:10019000882339F086E690E00E949A001092BA0017
:0E01A000EDCF81E00E944900E9CFF894FFCF37
:1001AE00380201060FC048656C6C6F2100636170E8
:1001BE0070756363696E6F00657370726573736FCC
:1001CE0000626C61636B20636F6666656500736DBC
:1001DE006F6F7468696500616D65726963616E6FDA
:1001EE00006361666520637562616E6F00667261A1
:0A01FE007070756363696E6F000096
:00000001FF
