S0200000436F666665654D616368696E654D656E75446973706C61792E737265639C
S11300000C942A000C9447000C9447000C9447006D
S11300100C9447000C9447000C9447000C94470040
S11300200C9447000C9447000C9447000C94470030
S11300300C9447000C9447000C9447000C94470020
S11300400C9447000C9447000C9447000C94470010
S11300500C94470011241FBECFE5D8E0DEBFCDBF0E
S113006011E0A0E6B0E0E6E0F5E002C005900D92F4
S1130070A638B107D9F721E0A6E8B1E001C01D9286
S1130080AA38B207E1F70E94B1010C9481020C94E2
S113009000008BBB85B38F7785BB85B3806285BB3E
S11300A08FE39FE10197F1F700C0000085B38F7DD6
S11300B085BB08958BBB85B3806885BB85B380629F
S11300C085BB8FE39FE10197F1F700C0000085B382
S11300D08F7D85BB08951F93CF93DF9300D000D00D
S11300E000D0CDB7DEB786E0E5E7F0E0DE0111969B
S11300F001900D928A95E1F710E010C0E1E0F0E084
S1130100EC0FFD1FE10FF11D80810E9449008FE17A
S11301109EE40197F1F700C000001F5F163070F3F2
S113012026960FB6F894DEBF0FBECDBFDF91CF91F8
S11301301F910895CF93DF93EC0103C00E945A00EE
S1130140219688818111FACFDF91CF910895811191
S113015005C080E8860F0E9449000895813021F48B
S113016080EC860F0E94490008958F929F92AF926F
S1130170BF92CF92DF92EF92FF92CF93DF934C0125
S113018081E00E9449008FE39FE10197F1F700C0ED
S11301900000092C000CAA08BB08C501B4012AE020
S11301A030E040E050E00E945F02672B682B692B2F
S11301B019F56FE081E00E94A70080E30E945A00D5
S11301C027C0C501B4012AE030E040E050E00E94BD
S11301D05F0249015A016B017C0120E3C20ED11C6C
S11301E0E11CF11C6FE06C1B81E00E94A7008C2DC8
S11301F00E945A00219602C0C0E0D0E0811491040C
S1130200A104B104F1F66FE06C1B81E00E94A70029
S1130210DF91CF91FF90EF90DF90CF90BF90AF90A0
S11302209F908F900895FF920F931F93CF93DF9326
S1130230CDB7DEB760970FB6F894DEBF0FBECDBF63
S11302408C01F12C3AC0309751F09081A1E0B0E0DC
S1130250AC0FBD1FA80FB11D9C93319608C0A1E03F
S1130260B0E0AC0FBD1FA80FB11D90E29C938F5F4F
S113027002C0F80180E0803130F3CE0101960E9483
S11302809A00FF2051F02FEF84E39CE0215080403E
S11302909040E1F700C0000009C02FEF83ED90E328
S11302A0215080409040E1F700C0000060E081E010
S11302B00E94A700F3940F5F1F4F2EE22F15C8F67C
S11302C060960FB6F894DEBF0FBECDBFDF91CF911D
S11302D01F910F91FF900895CF93DF93C0E0DFEF5C
S11302E038C0B79904C0CF5FB79BFECF05C0B6999D
S11302F003C0C150B69BFECFC7300CF0C0E0CC2386
S11303000CF4C6E060E081E00E94A7008C2F0C2E64
S1130310000C990BFC01EE0FFF1F8E0F9F1FFC01B9
S1130320E05AFF4F808191810E949A0086B396B370
S113033096FB992790F9881F8827881F892396B3ED
S113034095FB992790F9882311F09111EFCFB59B74
S1130350DC2FDF3F31F28D2FDD0F990BDF91CF9131
S113036008958FEF8ABB84BB17BA88B3806888BBB3
S113037088B3806488BB88B3806288BB88B380619B
S113038088BBD1E0C0E010E00E946B008091860140
S113039090918701909389018093880100E0EE2475
S11303A0EA94FE2CD13051F48BE790E00E941301C3
S11303B081E00E944900D0E0C1E0F4CFC130F1F403
S11303C081E00E94490060E080E00E94A7008BEB7E
S11303D090E00E949A002FEF8BE792E92150804031
S11303E09040E1F700C000000E946C017C0181E0B4
S11303F00E944900C0E011E000E0D4CF113091F632
S113040081E00E944900C7010E94B5002FEF8DE3EF
S113041099E4215080409040E1F700C0000081E061
S11304200E94490060E080E00E94A7008CEC90E00C
S11304300E949A0060E081E00E94A7008DED90E0A8
S11304400E949A0080E009C0B59B05C0B49905C01C
S113045081E000E002C081E001E08823A9F30130DB
S1130460A9F481E00E94490060E080E00E94A700B6
S11304708DEE90E00E949A002FEF87EA91E62150DA
S113048080409040E1F700C0000016C0011114C084
S113049081E00E94490060E080E00E94A7008EEFA6
S11304A090E00E949A002FEF87EA91E62150804065
S11304B09040E1F700C0000010E0C1E073CFA1E27A
S11304C01A2EAA1BBB1BFD010DC0AA1FBB1FEE1FCA
S11304D0FF1FA217B307E407F50720F0A21BB30B15
S11304E0E40BF50B661F771F881F991F1A9469F791
S11304F060957095809590959B01AC01BD01CF01ED
S10905000895F894FFCFFA
S11305060F013220011B31010A42012D53014F64B0
S1130516016575019C380201060FC057656C636F4F
S11305266D65212020202020202020412070726F1C
S11305366A656374206279205961736865737669A4
S11305462868617070696B696E292020202020203C
S113055620202020202020202020006D616B652093
S1130566612073656C656374696F6E00544F204334
S11305764F4E4649524D204F524445520050524523
S11305865353204F4B2F43414E43454C004F524447
S1130596455220434F4E4649524D454421004F5241
S11305A64445522043414E43454C4C454421006347
S11305B6617070756363696E6F202020203530008A
S11305C6657370726573736F202020202020323784
S11305D600626C61636B20636F666665652020311B
S11305E63000736D6F6F74686965202020202020A9
S11305F6343500616D65726963616E6F2020202059
S1130606203739006361666520637562616E6F2009
S113061620313031006672617070756363696E6F84
S1090626202031353600EE
S9030000FC
