S0200000436F666665654D616368696E654D656E75446973706C61792E737265639C
S11300000C942A000C9447000C9447000C9447006D
S11300100C9447000C9447000C9447000C94470040
S11300200C9447000C9447000C9447000C94470030
S11300300C9447000C9447000C9447000C94470020
S11300400C9447000C9447000C9447000C94470010
S11300500C94470011241FBECFE5D8E0DEBFCDBF0E
S113006011E0A0E6B0E0ECE3F4E002C005900D92EC
S1130070A434B107D9F721E0A4E4B1E001C01D9292
S1130080A934B207E1F70E949A010C941C020C9463
S113009000008BBB85B38F7785BB85B3806285BB3E
S11300A08FE39FE10197F1F700C0000085B38F7DD6
S11300B085BB08958BBB85B3806885BB85B380629F
S11300C085BB8FE39FE10197F1F700C0000085B382
S11300D08F7D85BB08951F93CF93DF9300D000D00D
S11300E000D0CDB7DEB786E0E5E7F0E0DE0111969B
S11300F001900D928A95E1F710E010C0E1E0F0E084
S1130100EC0FFD1FE10FF11D80810E9449008FE17A
S11301109EE40197F1F700C000001F5F163070F3F2
S113012026960FB6F894DEBF0FBECDBFDF91CF91F8
S11301301F910895CF93DF93EC0103C00E945A00EE
S1130140219688818111FACFDF91CF910895811191
S113015005C080E8860F0E9449000895813021F48B
S113016080EC860F0E94490008958F929F92AF926F
S1130170BF92CF92DF92EF92FF92CF93DF934C0125
S113018081E00E9449008FE39FE10197F1F700C0ED
S11301900000092C000CAA08BB08C0E0D0E01AC07B
S11301A0C501B4012AE030E040E050E00E94FA01C9
S11301B049015A016B017C0120E3C20ED11CE11CF0
S11301C0F11C6FE06C1B81E00E94A7008C2D0E9443
S11301D05A00219681149104A104B10409F76FE037
S11301E06C1B81E00E94A700DF91CF91FF90EF90FC
S11301F0DF90CF90BF90AF909F908F900895FF9223
S11302000F931F93CF93DF93CDB7DEB760970FB6ED
S1130210F894DEBF0FBECDBF8C01F12C3AC03097ED
S113022051F09081A1E0B0E0AC0FBD1FA80FB11D4B
S11302309C93319608C0A1E0B0E0AC0FBD1FA80F9D
S1130240B11D90E29C938F5F02C0F80180E0803181
S113025030F3CE0101960E949A00FF2051F02FEF57
S113026084E39CE0215080409040E1F700C000000E
S113027009C02FEF83ED90E3215080409040E1F7D7
S113028000C0000060E081E00E94A700F3940F5FCB
S11302901F4F2EE22F15C8F660960FB6F894DEBFF6
S11302A00FBECDBFDF91CF911F910F91FF900895A5
S11302B0CF93DF93C0E0D0E036C0B79904C0CF5FDE
S11302C0B79BFECF05C0B69903C0C150B69BFECF05
S11302D0C73008F0CD2F60E081E00E94A7008C2F8A
S11302E090E0FC01EE0FFF1F8E0F9F1FFC01E05AF0
S11302F0FF4F808191810E949A0086B396B396FB4A
S1130300992790F9881F8827881F892396B395FB1E
S1130310992790F9882311F09111EFCFB59903C073
S1130320B59BFECFDC2FDD2341F28D2F90E0DF91D2
S1130330CF9108958FEF8ABB84BB17BA88B38068C6
S113034088BB88B3806488BB88B3806288BBD1E0F3
S1130350C0E010E00E946B0080914501909146013D
S11303609093480180934701EE24EA94FE2CD13007
S113037051F48BE790E00E94FF0081E00E94490065
S1130380D0E0C1E02EC0C130B1F48BEB90E00E940C
S11303909A002FEF8BE792E9215080409040E1F7DB
S11303A000C000000E9458017C0181E00E944900C5
S11303B0C0E011E016C01130A1F481E00E944900B0
S11303C0C7010E94B5002FEF8FE493EC21508040C9
S11303D09040E1F700C0000081E00E94490010E075
S11303E0C1E0B79904C081E080934401C0CF10926A
S11303F04401BDCFA1E21A2EAA1BBB1BFD010DC0F7
S1130400AA1FBB1FEE1FFF1FA217B307E407F507C0
S113041020F0A21BB30BE40BF50B661F771F881F9C
S1130420991F1A9469F760957095809590959B0132
S10F0430AC01BD01CF010895F894FFCF8A
S113043CCC0032DD001BEE000AFF002D10014F2111
S113044C016532019C380201060FC057656C636F5D
S113045C6D65212020202020202020412070726FE7
S113046C6A6563742062792059617368657376696F
S113047C2868617070696B696E2920202020202007
S113048C20202020202020202020006D616B65205E
S113049C612073656C656374696F6E006361707061
S11304AC756363696E6F202020203530006573708E
S11304BC726573736F202020202020323700626C09
S11304CC61636B20636F6666656520203130007351
S11304DC6D6F6F74686965202020202020343500EE
S11304EC616D65726963616E6F202020202037393D
S11304FC006361666520637562616E6F2020313024
S113050C31006672617070756363696E6F2020319F
S107051C353600006C
S9030000FC
